:100000000C942A000C9447000C9447000C94470071
:100010000C9447000C9447000C9447000C94040483
:100020000C9447000C9447000C9447000C9469030F
:100030000C9447000C9447000C9447000C94470024
:100040000C9447000C9447000C9447000C94470014
:100050000C94470011241FBECFE5D8E0DEBFCDBF12
:1000600010E0A0E6B0E0EEEBFDE002C005900D92DE
:10007000A237B107D9F720E0A2E7B0E001C01D9296
:10008000A138B207E1F70E9447040C94DD060C94F6
:1000900000008BB3806F8BBB08958BB3806C8BBBE0
:1000A00008958CE580B984E086BF0895E82F262F57
:1000B0008BB380638BBB8BB38F7E8BBB862F90E023
:1000C00068EE73E00E94A60664E670E00E94A60651
:1000D0006AE070E00E94A606A5E7B0E06C938DECA4
:1000E000289F912D1124969596959695990F392FC5
:1000F000330F330F930F291B11962C931197489FA1
:10010000812D1124869586958695880F982F990FB5
:10011000990F890F481B12964C93E13019F0E33088
:1001200061F00FC0F0E0EB58FF4FE081F0E0E959DB
:10013000FF4F8081816082BB08958091650082BB02
:100140000895F0E0EB58FF4FE081F0E0E959FF4FF0
:10015000808182BB08958F929F92AF92BF92CF927F
:10016000DF92EF92FF921F93CF93DF93182FC62F4A
:100170008BB380638BBB8BB38F7D8BBB642F70E0A5
:1001800080E090E00E94AD052DEC3CEC4CEC5DE392
:100190000E9439066B017C016C2F70E080E090E0DA
:1001A0000E94AD05A70196010E949E0420E030E068
:1001B00040E151E40E94390620E030E040EA50E49A
:1001C0000E940A0520E030E040E052E40E949E04D4
:1001D0006B017C0120E030E040E251E40E943906EE
:1001E0000E947C059B01ADECBCEC0E94BA06EC01C0
:1001F000D695C795D695C795D695C795CE01880F44
:10020000991FCC0FDD1FCC0FDD1FCC0FDD1FC80FDA
:10021000D91F2C1B3D0BE901C701B6010E947C05CB
:100220006B017C019B013695279536952795369570
:100230002795A5ECB0E20E94BA06AC015295429512
:100240004F7045275F70452728EE33E0429FC0017D
:10025000439F900D529F900D1124A601481B590BEE
:100260009A013695279536952795ABE7B4E10E941C
:10027000BA069C013695279564E6629FC001639F8C
:10028000900D11249A01281B390BADECBCEC0E9497
:10029000BA06969587959695879596958795E5E7FD
:1002A000F0E0808396010E94BA0696958795969510
:1002B0008795969587959C01220F331F880F991F6C
:1002C000880F991F880F991F820F931F9601281B73
:1002D000390B21838DECC89F812D1124869586953D
:1002E0008695880F982F990F990F890FC81BC28385
:1002F000113019F0133069F010C0E12FF0E0EB5825
:10030000FF4FE081F0E0E959FF4F8081816082BBBF
:100310000EC08091640082BB0AC0E12FF0E0EB5870
:10032000FF4FE081F0E0E959FF4F808182BBDF9110
:10033000CF911F91FF90EF90DF90CF90BF90AF9043
:100340009F908F900895EF92FF921F93CF93DF932A
:10035000182F8BB380638BBB8BB38F7C8BBBC62F6B
:10036000D0E0CF5EDE4F642F70E080E090E00E942E
:10037000AD0520E030E040EC5FE30E949E040E9467
:100380007C05462F9E013695279536952795ABE738
:10039000B4E10E94BA0696958795E5E7F0E0808380
:1003A0009E01369527953695279536952795A5EC88
:1003B000B0E20E94BA067C01F694E794F694E794C2
:1003C000F694E794F694E79428EE33E0E29EC001B9
:1003D000E39E900DF29E900D11247E01E81AF90A19
:1003E00097013695279536952795ABE7B4E10E949E
:1003F000BA069C013695279554E6529FC001539F3B
:10040000900D11249701281B390BADECBCEC0E9418
:10041000BA06969587959695879596958795818343
:100420009E010E94BA069695879596958795969512
:1004300087959C01220F331F880F991F880F991FE2
:10044000880F991F820F931F9E01281B390B22834F
:100450008DEC489F812D1124869586958695880F71
:10046000982F990F990F890F481B4383123061F41D
:10047000E12FF0E0EB58FF4FE081F0E0E959FF4F4A
:100480008081816082BB0AC0E12FF0E0EB58FF4F12
:10049000E081F0E0E959FF4F808182BBDF91CF918D
:1004A0001F91FF90EF900895CF93DF93D82FC7E06F
:1004B00060E070E0CB0126C02D2F30E00C2E02C092
:1004C000359527950A94E2F720FF1BC0C63099F0B6
:1004D000C73019F0C530A9F407C020E030E040EA89
:1004E00050E40E949E040DC020E030E040E250E461
:1004F0000E949E0406C020E030E040EA5FE30E94D4
:100500009E04C150C530C0F60E947C05862FDF9145
:10051000CF910895CF93DF9328B381E090E00090CE
:10052000730002C0880F991F0A94E2F7822B88BBE0
:100530008091730091E0980F90937300833011F4D1
:1005400010927300E0E6F0E0C08181810E945402C5
:10055000D82F80918000811120C00E944D00809191
:100560006600823061F0833089F0813009F089C003
:100570004D2F6C2F809173000E94560082C04D2F2A
:100580006C2F809173000E94AB007BC04D2F6C2FAD
:10059000809173000E94A30174C08091800081301B
:1005A00049F50E944D008BB38F7B8BBBE2E6F0E0F8
:1005B000C08181810E94540290916600923061F066
:1005C000933089F0913009F05CC0482F6C2F8091F6
:1005D00073000E94560055C0482F6C2F8091730005
:1005E0000E94AB004EC0482F6C2F809173000E9478
:1005F000A30147C080918000823041F50E944D00E8
:100600008BB38F778BBBE9E7F0E0C08181810E94DB
:10061000540290916600923059F0933081F09130FD
:1006200081F5482F6C2F809173000E94560029C0DD
:10063000482F6C2F809173000E94AB0022C0482F7E
:100640006C2F809173000E94A3011BC080917200E7
:1006500081110BC00E9449008BB38F708BBB8091BE
:1006600072008F5F809372000CC091E0980F90939E
:100670007200843631F41092720080917B00809376
:10068000800028B381E090E00090730002C0880FE2
:10069000991F0A94E2F78095822388BBDF91CF915E
:1006A00008958091600090917900981738F4E9E7F7
:1006B000F0E08083809161008183089590916200D1
:1006C000891730F4E2E6F0E0808380916100818355
:1006D00008951F920F920FB60F9211242F933F93FC
:1006E0004F935F936F937F938F939F93AF93BF933A
:1006F000EF93FF930E948A02C8990FC080917F00F8
:10070000882319F0813029F015C081E080937F00A3
:1007100011C082E080937F000DC080917F00833004
:1007200019F0843029F006C084E080937F0002C075
:1007300010927F00C9990EC080917E00882319F025
:10074000813021F014C081E080937E0082E08093AC
:100750007E000DC080917E00833019F0843029F036
:1007600006C084E080937E0002C010927E00CA9989
:100770000FC080917D00882319F0813029F015C0C9
:1007800081E080937D0011C082E080937D000DC0E8
:1007900080917D00833019F0843029F006C084E018
:1007A00080937D0002C010927D00CB990FC0809194
:1007B0007C00882319F0813029F015C081E08093F6
:1007C0007C0011C082E080937C000DC080917C0091
:1007D000833019F0843029F006C084E080937C00D7
:1007E00002C010927C00FF91EF91BF91AF919F9159
:1007F0008F917F916F915F914F913F912F910F90CA
:100800000FBE0F901F9018951F920F920FB60F9268
:1008100011242F933F934F935F936F937F938F9305
:100820009F93AF93BF93EF93FF93E0E6F0E0808157
:1008300091E0980F9083833219F48FE080936000E9
:1008400080917400811110C0809174008F5F80933B
:100850007400A0E6B0E08C91E9E7F0E080831196A7
:100860009C919183809362000E945103FF91EF91CC
:10087000BF91AF919F918F917F916F915F914F91B8
:100880003F912F910F900FBE0F901F9018950E94CF
:1008900051008FEF81BB87BB8AB3807F8ABB8BB34C
:1008A0008F608BBB8AB3806F8ABB0E9449000E9415
:1008B000510083B7846083BF8EB58C608EBD82E1AA
:1008C0009AE79BBD8ABD89B7816189BF7894809181
:1008D0007F00823079F4809166008F5F809366009C
:1008E000843019F481E0809366001092800083E0E8
:1008F00080937F0080917E00823031F481E080938C
:10090000800083E080937E0080917D00823029F416
:100910008093800083E080937D0080917C00823012
:10092000B1F6109274008091800080937B0083E088
:100930008093800080937C00CACF5058BB27AA27A1
:100940000E94B5040C94FF050E94F10538F00E9446
:10095000F80520F039F49F3F19F426F40C94EE05C5
:100960000EF4E095E7FB0C94E805E92F0E941006D1
:1009700058F3BA17620773078407950720F079F4D4
:10098000A6F50C9432060EF4E0950B2EBA2FA02D8E
:100990000B01B90190010C01CA01A0011124FF272C
:1009A000591B99F0593F50F4503E68F11A16F04027
:1009B000A22F232F342F4427585FF3CF4695379526
:1009C0002795A795F0405395C9F77EF41F16BA0BEB
:1009D000620B730B840BBAF09150A1F0FF0FBB1F99
:1009E000661F771F881FC2F70EC0BA0F621F731FE2
:1009F000841F48F4879577956795B795F7959E3F3F
:100A000008F0B0CF9395880F08F09927EE0F9795CF
:100A1000879508950E941E050C94FF050E94F80515
:100A200058F00E94F10540F029F45F3F29F00C9442
:100A3000E80551110C9433060C94EE050E94100643
:100A400068F39923B1F3552391F3951B550BBB27FD
:100A5000AA2762177307840738F09F5F5F4F220F42
:100A6000331F441FAA1FA9F335D00E2E3AF0E0E839
:100A700032D091505040E695001CCAF72BD0FE2F83
:100A800029D0660F771F881FBB1F26173707480717
:100A9000AB07B0E809F0BB0B802DBF01FF279358CF
:100AA0005F4F3AF09E3F510578F00C94E8050C94A6
:100AB00033065F3FE4F3983ED4F3869577956795C8
:100AC000B795F7959F5FC9F7880F911D9695879504
:100AD00097F90895E1E0660F771F881FBB1F621723
:100AE00073078407BA0720F0621B730B840BBA0BE1
:100AF000EE1F88F7E09508950E94180688F09F572A
:100B000098F0B92F9927B751B0F0E1F0660F771F31
:100B1000881F991F1AF0BA95C9F714C0B13091F027
:100B20000E943206B1E008950C943206672F782FA8
:100B30008827B85F39F0B93FCCF3869577956795EC
:100B4000B395D9F73EF490958095709561957F4F58
:100B50008F4F9F4F0895E89409C097FB3EF49095FE
:100B60008095709561957F4F8F4F9F4F9923A9F086
:100B7000F92F96E9BB279395F69587957795679515
:100B8000B795F111F8CFFAF4BB0F11F460FF1BC059
:100B90006F5F7F4F8F4F9F4F16C0882311F096E9EC
:100BA00011C0772321F09EE8872F762F05C066239A
:100BB00071F096E8862F70E060E02AF09A95660F53
:100BC000771F881FDAF7880F9695879597F908950C
:100BD00097F99F6780E870E060E008959FEF80ECF0
:100BE000089500240A941616170618060906089593
:100BF00000240A9412161306140605060895092EF9
:100C00000394000C11F4882352F0BB0F40F4BF2B67
:100C100011F460FF04C06F5F7F4F8F4F9F4F0895A7
:100C200057FD9058440F551F59F05F3F71F047959D
:100C3000880F97FB991F61F09F3F79F08795089582
:100C4000121613061406551FF2CF4695F1DF08C0A1
:100C5000161617061806991FF1CF869571056105BE
:100C600008940895E894BB2766277727CB0197F966
:100C700008950E944C060C94FF050E94F10538F07F
:100C80000E94F80520F0952311F00C94E8050C94CF
:100C9000EE0511240C9433060E94100670F3959F04
:100CA000C1F3950F50E0551F629FF001729FBB2763
:100CB000F00DB11D639FAA27F00DB11DAA1F649FFF
:100CC0006627B00DA11D661F829F2227B00DA11DB2
:100CD000621F739FB00DA11D621F839FA00D611D38
:100CE000221F749F3327A00D611D231F849F600D59
:100CF000211D822F762F6A2F11249F5750409AF082
:100D0000F1F088234AF0EE0FFF1FBB1F661F771F0D
:100D1000881F91505040A9F79E3F510580F00C94D8
:100D2000E8050C9433065F3FE4F3983ED4F38695D0
:100D300077956795B795F795E7959F5FC1F7FE2B78
:100D4000880F911D9695879597F9089597FB072E23
:100D500016F4009407D077FD09D00E94C90607FC5D
:100D600005D03EF4909581959F4F089570956195BB
:100D70007F4F0895A29FB001B39FC001A39F700D44
:100D8000811D1124911DB29F700D811D1124911D93
:100D90000895AA1BBB1B51E107C0AA1FBB1FA617C2
:100DA000B70710F0A61BB70B881F991F5A95A9F714
:0E0DB00080959095BC01CD010895F894FFCF79
:100DBE000FE078008E9C01FC60DAF266B6BEE4FEAF
:020DCE00F6002D
:00000001FF
