S01A000050726F6A656B74207465726D6F6D657472612E73726563CB
S11300000C942F000C944C000C944C000C944C0059
S11300100C944C000C944C000C944C000C949502E1
S11300200C944C000C944C000C944C000C940F0257
S11300300C944C000C944C000C944C000C944C000C
S11300400C944C000C944C000C944C000C944C00FC
S11300500C944C00FC60DAF266B6BEE4FEF61124A1
S11300601FBECFE5D8E0DEBFCDBF10E0A0E6B0E014
S1130070E8E0F9E002C005900D92A836B107D9F77F
S113008020E0A8E6B0E001C01D92A637B207E1F770
S11300900E94D5020C9482040C9400008BB3806FF0
S11300A08BBB08958BB3806C8BBB08958CE580B9B2
S11300B084E086BF0895282FE62F8BB380638BBB23
S11300C0DC98862F90E064E670E00E946E046AE09B
S11300D070E00E946E0460936A003AE08E2F632FF2
S11300E00E944E04E92F90936B00842F0E944E04CB
S11300F090936C00213031F0233051F480916600EC
S113010088BB0895F0E0EC5AFF4FE491E16009C028
S1130110E22FF0E0E659FF4FE081F0E0EC5AFF4FA8
S1130120E491E8BB0895E82F8BB380638BBBDD9823
S113013050E08AE0689F400D511D112429E0249F5E
S1130140C001259F900D112465E070E00E946E04AB
S1130150CB01805C9E4F64E670E00E945A04609379
S11301606A006AE070E00E945A0460936B00809316
S11301706C00E13031F0E33059F48091650088BBC4
S11301800895FB01EC5AFF4F6491616068BB0895C8
S1130190F0E0E659FF4FE081F0E0EC5AFF4FE491C4
S11301A0E8BB0895CF92DF92EF92FF921F93CF9313
S11301B0DF93182F8BB380638BBB8BB38F7C8BBB8C
S11301C0C62FD0E0CF5EDE4F642F70E080E090E079
S11301D00E94C20320E030E040EC5FE30E9425036C
S11301E06B017C01CE0164E670E00E945A046093C6
S11301F06A002AE030E0B9010E945A0460936B005F
S1130200CE01B9010E945A04EC0180936C00C7012D
S1130210B6010E949103862F6AE00E944E049093D7
S11302206D00123031F4FE01EC5AFF4FE491E160AD
S113023009C0E12FF0E0E659FF4FE081F0E0EC5A0D
S1130240FF4FE491E8BBDF91CF911F91FF90EF90B6
S1130250DF90CF900895CF93C82F87FF02C065E049
S113026001C060E0C6FF0DC070E080E090E00E9435
S1130270C20320E030E040E250E40E9425030E94E3
S11302809103C5FF0DC070E080E090E00E94C203BE
S113029020E030E040EA5FE30E9425030E949103DE
S11302A0862FCF910895CF93DF9322B381E090E01E
S11302B00090600002C0880F991F0A94E2F7822B15
S11302C082BB80916000873011F08F5F01C084E0B1
S11302D080936000809162000E942B01D82F80914E
S11302E07500811115C0C09161000E945200909167
S11302F0670080916000923039F0933039F091308A
S113030009F051C04D2F28C04D2F2BC04D2F2EC0AA
S113031080917500813041F40E945200DE98C091B2
S11303206300809164000BC080917500823019F5E0
S11303300E945200DF98C0916E0080916F000E946D
S11303402B01482F9091670080916000923049F012
S1130350933061F0913039F56C2F84500E945B002A
S113036022C06C2F84500E94D2001DC06C2F845078
S11303700E94930018C080916800811108C00E94F7
S11303804E008BB38F708BBB8091680002C08436A3
S113039021F08F5F8093680006C0109268008091FE
S11303A070008093750022B381E090E000906000BB
S11303B002C0880F991F0A94E2F78095822382BBBA
S11303C0DF91CF9108958091610020916E002817EC
S11303D038F480936E008091620080936F000895DA
S11303E090916300891728F48093630080916200E0
S11303F013C0821309C02091620030916F0032173C
S113040018F420936F000895891308C08091620046
S113041090916400891710F48093640008951F92EA
S11304200F920FB60F9211242F933F934F935F9324
S11304306F937F938F939F93AF93BF93EF93FF93A8
S11304400E945301C8990AC080917400882321F046
S1130450813081F482E00CC081E00AC08091740094
S1130460833029F0843031F41092740003C084E0A6
S113047080937400C9990CC080917300882319F08B
S1130480813021F011C081E08093730082E00AC0C2
S113049080917300833029F0843031F4109273001A
S11304A003C084E080937300CA990AC080917200EB
S11304B0882321F0813081F482E00CC081E00AC0FD
S11304C080917200833029F0843031F410927200EC
S11304D003C084E080937200CB990AC080917100BC
S11304E0882321F0813081F482E007C081E005C0D7
S11304F080917100833021F484E08093710004C002
S1130500843011F410927100FF91EF91BF91AF917B
S11305109F918F917F916F915F914F913F912F9117
S11305200F900FBE0F901F9018951F920F920FB649
S11305300F9211242F933F934F935F936F937F9365
S11305408F939F93AF93BF93EF93FF938091610039
S1130550843211F08F5F01C08FE08093610080913D
S1130560690081110FC0809169008F5F80936900D9
S11305708091610080936E009091620090936F006F
S1130580809363000E94E301FF91EF91BF91AF91CB
S11305909F918F917F916F915F914F913F912F9197
S11305A00F900FBE0F901F9018950E9456008FEF6A
S11305B087BB81BB8AB3807F8ABB8BB38F608BBBC5
S11305C08AB3806F8ABB0E944E0084E083BF8EB5DD
S11305D08C608EBD82E19AE79BBD8ABD89B781613B
S11305E089BF789483E021E090917400923069F49B
S11305F0909167009F5F90936700943011F420936B
S1130600670010927500809374009091730092308B
S113061021F42093750080937300909172009230BE
S113062021F4909375008093720090917100923040
S1130630D9F61092690090917500909370008093A0
S1130640750080937100D0CF5058BB27AA270E9411
S11306503C030C9414040E94060438F00E940D0418
S113066020F039F49F3F19F426F40C9403040EF49B
S1130670E095E7FB0C94FD03E92F0E94250458F351
S1130680BA17620773078407950720F079F4A6F573
S11306900C9447040EF4E0950B2EBA2FA02D0B01F9
S11306A0B90190010C01CA01A0011124FF27591BB3
S11306B099F0593F50F4503E68F11A16F040A22FB9
S11306C0232F342F4427585FF3CF4695379527952A
S11306D0A795F0405395C9F77EF41F16BA0B620B29
S11306E0730B840BBAF09150A1F0FF0FBB1F661F70
S11306F0771F881FC2F70EC0BA0F621F731F841FB3
S113070048F4879577956795B795F7959E3F08F0D8
S1130710B0CF9395880F08F09927EE0F979587959A
S113072008950E942D0488F09F5798F0B92F9927B7
S1130730B751B0F0E1F0660F771F881F991F1AF0C8
S1130740BA95C9F714C0B13091F00E944704B1E0E2
S113075008950C944704672F782F8827B85F39F0E1
S1130760B93FCCF3869577956795B395D9F73EF461
S113077090958095709561957F4F8F4F9F4F089509
S1130780E89409C097FB3EF4909580957095619527
S11307907F4F8F4F9F4F9923A9F0F92F96E9BB27DD
S11307A09395F695879577956795B795F111F8CF59
S11307B0FAF4BB0F11F460FF1BC06F5F7F4F8F4FC4
S11307C09F4F16C0882311F096E911C0772321F0BA
S11307D09EE8872F762F05C0662371F096E8862F52
S11307E070E060E02AF09A95660F771F881FDAF7A9
S11307F0880F9695879597F9089597F99F6780E8EC
S113080070E060E008959FEF80EC089500240A945E
S11308101616170618060906089500240A941216D7
S11308201306140605060895092E0394000C11F40A
S1130830882352F0BB0F40F4BF2B11F460FF04C0B7
S11308406F5F7F4F8F4F9F4F089557FD9058440F10
S1130850551F59F05F3F71F04795880F97FB991F1B
S113086061F09F3F79F087950895121613061406D8
S1130870551FF2CF4695F1DF08C016161706180665
S1130880991FF1CF86957105610508940895E89440
S1130890BB2766277727CB0197F90895991B79E041
S11308A004C0991F961708F0961B881F7A95C9F7FC
S11308B080950895AA1BBB1B51E107C0AA1FBB1F4B
S11308C0A617B70710F0A61BB70B881F991F5A95D8
S11308D0A9F780959095BC01CD01089597FB072E4B
S11308E016F4009407D077FD09D00E945A0407FC3F
S11308F005D03EF4909581959F4F0895709561952C
S10B09007F4F0895F894FFCF26
S10B090804008078008E9C01BC
S9030000FC
